S0200000526F626F745F4163747561746F725F566F6A615F323031352E7372656346
S113000049C0000064C0000062C0000060C000007D
S11300105EC000005CC000005AC0000058C0000070
S113002056C0000054C0000052C0000050C0000080
S11300304EC000004CC000004AC0000048C0000090
S113004046C0000044C00000FDC0000040C00000E5
S11300503EC000003CC000003AC0000038C00000B0
S113006036C0000034C0000032C0000030C00000C0
S11300702EC000002CC000002AC0000028C00000D0
S113008026C0000024C0000022C0000020C00000E0
S11300901EC0000011241FBECFEFD0E1DEBFCDBFD4
S11300A011E0A0E0B1E0EAE2FAE000E00BBF02C038
S11300B007900D92A030B107D9F712E0A0E0B1E0AB
S11300C001C01D92A73FB107E1F7F2D2ACC498CFAB
S11300D0813019F58CE390E064EB70E041E022E0BC
S11300E082D220E137E244E151E0CA010197F1F7FD
S11300F021503040D1F780EA90E064EB70E041E0B9
S113010022E071D220E137E244E151E0CA010197D3
S1130110F1F721503040D1F708958CE390E064EB7F
S113012070E041E024E05FD220E137E244E151E0B5
S1130130CA010197F1F721503040D1F780EA90E0ED
S113014064EB70E041E024E04ED220E137E244E188
S113015051E0CA010197F1F721503040D1F70895D9
S1130160813019F58CE390E064EB70E041E021E02C
S11301703AD220E137E244E151E0CA010197F1F7B4
S113018021503040D1F780EA90E064EB70E041E028
S113019021E029D220E137E244E151E0CA0101978C
S11301A0F1F721503040D1F7089580EA90E064EBF4
S11301B070E041E023E017D220E137E244E151E06E
S11301C0CA010197F1F721503040D1F78CE390E058
S11301D064EB70E041E023E006D220E137E244E141
S11301E051E0CA010197F1F721503040D1F7089549
S11301F00F931F93DF93CF93CDB7DEB72A970FB634
S1130200F894DEBF0FBECDBF09831A832B833C83D2
S11302104D835E836F83788789879A87812F013422
S113022019F0023421F402C09BDF01C051DF2A9689
S11302300FB6F894DEBF0FBECDBFCF91DF911F91F3
S11302400F9108951F920F920FB60F920BB60F9253
S113025011242F933F934F935F936F937F938F93C7
S11302609F93AF93BF93CF93DF93EF93FF935091FB
S1130270ED0090E0ADEEB0E0EEEEF0E0892F829577
S1130280807F8C93808185FF5EC080E88093EF003F
S1130290EEEEF0E080818F7D808360E070E0CAEF55
S11302A0D0E0A3E0B1E0209102014881822F90E0E8
S11302B09C01220F331F880F991F880F991F880FE5
S11302C0991F280F391F260F371FFD01E20FF31F57
S11302D040836F5F7F4F6830710529F740910201B9
S11302E08091F2002091F30030E0220F331F220F9F
S11302F0331F220F331F82958695877090E0282B39
S1130300392B842F90E0FC01EE0FFF1F880F991FFB
S1130310880F991F880F991FE80FF91FE55FFE4F9B
S113032031832083809102018F5F80930201809149
S11303300201823311F410920201809100018F5F57
S1130340809300010FC0808186FF08C01092EF00E7
S1130350EEEEF0E080818F7B808304C09F5F9F304E
S113036009F08CCF5093ED00EAEDF0E080818083BA
S1130370FF91EF91DF91CF91BF91AF919F918F91B9
S11303807F916F915F914F913F912F910F900BBE91
S11303900F900FBE0F901F9018952F923F924F927F
S11303A05F926F927F928F929F92AF92BF92CF9201
S11303B0DF92EF92FF920F931F93CF93DF9381E02D
S11303C08093D80020E00F2EFDEE4F2E5524F02D03
S11303D00F2EFEEE6F2E7724F02D0F2EFFEE8F2EB4
S11303E09924F02D0F2EF3EFAF2EBB24F02D0F2EFA
S11303F0F2EFCF2EDD24F02D0F2EF1EFEF2EFF24A0
S1130400F02D00EF10E067EF70E046EF50E0C5EF2D
S1130410D0E00F2EF4EF2F2E3324F02DEAEFF0E08E
S1130420822F8295807FD2018C93D3011C92D401B8
S11304301C92D5011C92D6011C92D7011C92D801A2
S11304401C92DB011C92DA011C921882D1011C92CD
S113045080E010828F5F8830E1F72F5F2F3001F743
S113046082E08093D80081E08093E2008AE0809368
S1130470E3008EE68093E4001092E50080EB809325
S1130480DB008FE78093DF008FEF8093DE00DF9146
S1130490CF911F910F91FF90EF90DF90CF90BF907D
S11304A0AF909F908F907F906F905F904F903F9010
S11304B02F900895DC01809100018823E1F3F894E2
S11304C040E050E063E071E020910101822F90E070
S11304D09C01220F331F880F991F880F991F880FC3
S11304E0991F280F391F240F351FFB01E20FF31F3B
S11304F08081FD01E40FF51F80834F5F5F4F48301B
S1130500510511F720910101822F90E0FC01EE0FBB
S1130510FF1F880F991F880F991F880F991FE80FD5
S1130520F91FE55FFE4F8081918119969C938E930C
S11305301897809101018F5F8093010180910101DF
S1130540823311F410920101809100018150809353
S1130550000178940895EDE2F0E080818C7F80833F
S11305601092C00088E18093C10086E08093C200AD
S11305701092C50085E08093C40028EE33E044E186
S113058051E0CA010197F1F721503040D1F70895A5
S1130590982FE0ECF0E0808185FFFDCF9093C600BA
S11305A00895E0ECF0E0808186FFFDCFE1ECF0E01F
S11305B08081877F8083E0ECF0E0808180648083A9
S11305C00895E1ECF0E08081886080830895E1EC97
S11305D0F0E080818F7E80830895E1ECF0E08081FB
S11305E08061808308956F927F928F929F92AF92E1
S11305F0BF92CF92DF92EF92FF920F931F935B0112
S1130600942E622EA0E0B0E0BC01CD011BD120E00D
S113061030E046E953E482D020E030EC4FE754E484
S11306209FD1E4D06B017C01192D110F110F00E053
S11306300A291B29CCDF8FEFABDF8FEFA9DF862DD3
S1130640A7DF87E0A5DF83E0A3DF8EE1A1DF8C2DA8
S11306509FDF8D2D9DDF802F9BDF812F99DF262D3E
S113066030E0285D3F4F2C0D311D2D0D311D200F25
S1130670311D210F311D822F80958ADF92DFADDF7E
S113068024EF31E044E151E0CA010197F1F7215030
S11306903040D1F796DF1F910F91FF90EF90DF90DC
S11306A0CF90BF90AF909F908F907F906F90089560
S11306B0EF92FF920F931F93DF93CF93CDB7DEB7E3
S11306C02A970FB6F894DEBF0FBECDBFEDE2F0E07F
S11306D0808180618083EEE2F0E080818F7E808380
S11306E03ADF5BDE20E137E244E151E0CA010197E1
S11306F0F1F721503040D1F77E010894E11CF11C40
S1130700C701D8DE09811A812B813C814D815E812C
S11307106F81788589859A856BDDF2CF0CD0E6C030
S1130720DED040F0D5D030F021F45F3F19F0C7C0DF
S1130730511110C1CAC0EBD098F39923C9F35523C2
S1130740B1F3951B550BBB27AA27621773078407C0
S113075038F09F5F5F4F220F331F441FAA1FA9F376
S113076033D00E2E3AF0E0E830D091505040E69568
S1130770001CCAF729D0FE2F27D0660F771F881FC9
S1130780BB1F261737074807AB07B0E809F0BB0BB8
S1130790802DBF01FF2793585F4F2AF09E3F5105DC
S11307A068F08DC0D7C05F3FECF3983EDCF38695CC
S11307B077956795B795F7959F5FC9F7880F911D52
S11307C09695879597F90895E1E0660F771F881F3E
S11307D0BB1F621773078407BA0720F0621B730BF1
S11307E0840BBA0BEE1F88F7E095089598D088F033
S11307F09F5790F0B92F9927B751A0F0D1F0660F09
S1130800771F881F991F1AF0BA95C9F712C0B13023
S113081081F09FD0B1E008959CC0672F782F88277E
S1130820B85F39F0B93FCCF3869577956795B39562
S1130830D9F73EF490958095709561957F4F8F4FD1
S11308409F4F0895E89409C097FB3EF490958095D6
S1130850709561957F4F8F4F9F4F9923A9F0F92F82
S113086096E9BB279395F695879577956795B79500
S1130870F111F8CFFAF4BB0F11F460FF1BC06F5FE6
S11308807F4F8F4F9F4F16C0882311F096E911C0F8
S1130890772321F09EE8872F762F05C0662371F019
S11308A096E8862F70E060E02AF09A95660F771F2D
S11308B0881FDAF7880F9695879597F9089597F921
S11308C09F6780E870E060E008959FEF80EC0895F2
S11308D000240A941616170618060906089500241B
S11308E00A9412161306140605060895092E039495
S11308F0000C11F4882352F0BB0F40F4BF2B11F409
S113090060FF04C06F5F7F4F8F4F9F4F089557FD67
S11309109058440F551F59F05F3F71F04795880F69
S113092097FB991F61F09F3F79F087950895121600
S113093013061406551FF2CF4695F1DF08C01616AC
S113094017061806991FF1CF86957105610508945D
S11309500895E894BB2766277727CB0197F9089574
S11309600BD0C4CFB5DF28F0BADF18F0952309F017
S1130970A6CFABCF1124EECFCADFA0F3959FD1F35E
S1130980950F50E0551F629FF001729FBB27F00D39
S1130990B11D639FAA27F00DB11DAA1F649F66278E
S11309A0B00DA11D661F829F2227B00DA11D621FDD
S11309B0739FB00DA11D621F839FA00D611D221F97
S11309C0749F3327A00D611D231F849F600D211D7B
S11309D0822F762F6A2F11249F5750408AF0E1F01E
S11309E088234AF0EE0FFF1FBB1F661F771F881F67
S11309F091505040A9F79E3F510570F060CFAACFA7
S1130A005F3FECF3983EDCF3869577956795B79551
S1130A10F795E7959F5FC1F7FE2B880F911D96957B
S10D0A20879597F90895F894FFCF25
S9030000FC
