S0200000526F626F745F4163747561746F725F566F6A615F323031352E7372656346
S113000049C0000065C0000063C0000061C000007A
S11300105FC000005DC000005BC0000059C000006C
S113002057C0000055C0000053C0000051C000007C
S1130030FDC700004DC000004BC0000049C00000D7
S113004047C0000045C0000093C1000041C000004B
S11300503FC000003DC000003BC0000039C00000AC
S113006037C0000035C0000033C0000031C00000BC
S11300702FC000002DC000002BC0000029C00000CC
S113008027C0000025C0000023C0000021C00000DC
S11300901FC0000011241FBECFEFD0E1DEBFCDBFD3
S11300A011E0A0E0B1E0E0E2F7E100E00BBF02C044
S11300B007900D92A630B107D9F713E0A6E0B1E09E
S11300C001C01D92A233B107E1F75FD50C948E0BEA
S11300D097CFDF93CF9300D0CDB7DEB789836A8300
S11300E08A81813099F48981813041F48CE390E0F4
S11300F060EF70E041E021E04CD41AC080EA90E067
S113010064EB70E041E023E044D412C08981813083
S113011041F480EA90E060EF70E041E021E039D4FE
S113012007C08CE390E064EB70E041E023E031D45D
S11301300F900F90CF91DF910895DF93CF9300D06C
S1130140CDB7DEB789836A838A81813099F4898146
S1130150813041F48CE291E060EF70E041E022E014
S113016018D433C08CE390E060EF70E041E024E009
S113017010D42BC08A818F3F99F48981813041F456
S113018088E191E060EF70E041E022E002D41DC01C
S113019084E690E060EF70E041E024E0FAD315C01B
S11301A08A81823091F48981813041F480EF90E03A
S11301B060EF70E041E022E0ECD307C088E790E014
S11301C060EF70E041E024E0E4D30F900F90CF9112
S11301D0DF910895DF93CF930F92CDB7DEB7898374
S11301E0ADE2B0E0EDE2F0E0808180618C93898142
S11301F0813041F4AEE2B0E0EEE2F0E08081806173
S11302008C9307C0AEE2B0E0EEE2F0E080818F7E36
S11302108C930F90CF91DF910895DF93CF930F923A
S1130220CDB7DEB78983ADE2B0E0EDE2F0E08081E6
S113023080628C938981813041F4AEE2B0E0EEE2D9
S1130240F0E0808180628C9307C0AEE2B0E0EEE221
S1130250F0E080818F7D8C930F90CF91DF91089592
S1130260DF93CF930F92CDB7DEB7898380912803B4
S1130270AAD580912903A7D580912A03A4D580917A
S11302802C03DED58981813021F480912A039BD50A
S113029003C080912A03D4D50F90CF91DF910895A4
S11302A00F931F93DF93CF93CDB7DEB72F970FB67E
S11302B0F894DEBF0FBECDBF0C831D832E833F8316
S11302C0488759876A877B878C879D878C818B8336
S11302D08B81282F30E03F872E878E859F8583343E
S11302E0910569F12E853F85243431055CF48E85B2
S11302F09F858134910589F02E853F85223431050F
S1130300A9F02BC08E859F8584349105E9F02E8554
S11303103F8525343105E9F020C08D818A838E81A3
S113032089838A819981692FD4DE17C08D818A835C
S11303308E8189838A819981692FFFDE0EC08D8128
S1130340898389816ADF09C08D818983898142DF3C
S113035004C08D818983898183DF2F960FB6F89439
S1130360DEBF0FBECDBFCF91DF911F910F910895D6
S11303701F920F920FB60F9200905B000F92112400
S11303802F933F934F935F936F937F938F939F9399
S1130390AF93BF93EF93FF93DF93CF9300D00F926C
S11303A0CDB7DEB7EDEEF0E080818B831A8295C085
S11303B0EDEEF0E08A818295807F8083EEEEF0E0BE
S11303C08081829586958770882F90E081709070E7
S11303D0882309F467C0EFEEF0E080E88083AEEE96
S11303E0B0E0EEEEF0E080818F7D8C9319821DC029
S11303F080910701282F30E08981482F50E0EAEFEF
S1130400F0E06081C901880F991F9C01220F331FFE
S1130410220F331F820F931F840F951FFC01E75F88
S1130420FE4F608389818F5F89838981883000F3DF
S113043080910701682F70E0E2EFF0E080818295FF
S113044086958770282F30E0E3EFF0E08081882FD5
S113045090E0880F991F880F991F880F991F822B8E
S1130460932BAC01CB01880F991F9C01220F331FE2
S1130470220F331F820F931FFC01EF5EFE4F518347
S11304804083809107018F5F80930701809107016A
S1130490823311F410920701809108018F5F8093D9
S11304A008011FC0EEEEF0E0808182958695869566
S11304B08370882F90E081709070882359F0EFEE5C
S11304C0F0E01082AEEEB0E0EEEEF0E080818F7BE3
S11304D08C9307C08A818F5F8A838A818F3008F466
S11304E067CFEDEEF0E08B818083AAEDB0E0EAED1A
S11304F0F0E080818C930F900F900F90CF91DF915B
S1130500FF91EF91BF91AF919F918F917F916F91E7
S11305105F914F913F912F910F9000925B000F904C
S11305200FBE0F901F901895DF93CF9300D0CDB7D7
S1130530DEB7E8EDF0E081E080831A8232C0EDEEB0
S1130540F0E08A818295807F8083EEEEF0E0108275
S1130550EFEEF0E01082E3EFF0E01082E2EFF0E083
S11305601082E1EFF0E01082E0EFF0E01082E7EFBC
S1130570F0E01082E6EFF0E01082E5EFF0E01082A8
S1130580E4EFF0E01082198206C0EAEFF0E0108296
S113059089818F5F898389818830B8F38A818F5FED
S11305A08A838A818F3058F2E8EDF0E082E080831C
S11305B0E2EEF0E081E08083E3EEF0E08AE0808325
S11305C0E4EEF0E08EE68083E5EEF0E01082EBED01
S11305D0F0E080EB8083EFEDF0E08FE78083EEEDD9
S11305E0F0E08FEF80830F900F90CF91DF9108950B
S11305F0DF93CF9300D000D00F92CDB7DEB79C83AA
S11306008B83EDEEF0E080818983E9EDF0E0808179
S113061082958F70882F90E0817090708823A9F75D
S1130620E9EDF0E08081869586958695882F90E0A7
S113063081709070882349F71A8240C0EDEEF0E093
S11306408A818295807F8083EFEEF0E080818295BD
S1130650869586958370882371F5EFEEF0E08FE040
S11306608083E3EFF0E08B819C8190709695879571
S113067096958795969587958083E2EFF0E08B8138
S11306808295880F807E8083E6EFF0E080EE8083A1
S1130690E7EFF0E08FEF8083AFEEB0E0EFEEF0E055
S11306A0808180688C937894EDEEF0E0898180837A
S11306B081E08D830CC08A818F5F8A838A818F3029
S11306C008F4BCCFEDEEF0E0898180831D828D813A
S11306D00F900F900F900F900F90CF91DF9108958E
S11306E0DF93CF9300D00F92CDB7DEB79B838A837D
S11306F0809108018823E1F3F894198223C0898149
S1130700682F70E080910601282F30E08981482FFE
S113071050E0C901880F991F9C01220F331F220F3B
S1130720331F820F931F840F951FFC01E75FFE4F59
S113073020818A819B81FC01E60FF71F2083898138
S11307408F5F898389818830D0F280910601882F58
S113075090E0880F991F9C01220F331F220F331F33
S1130760820F931FFC01EF5EFE4F80819181EA812D
S1130770FB8191878087809106018F5F80930601BA
S113078080910601823311F41092060180910801D0
S113079081508093080178940F900F900F90CF911F
S11307A0DF910895DF93CF93CDB7DEB72E970FB6C1
S11307B0F894DEBF0FBECDBFADE2B0E0EDE2F0E0F5
S11307C080818C7F8C93E0ECF0E01082E1ECF0E02F
S11307D088E18083E2ECF0E086E08083E5ECF0E001
S11307E01082E4ECF0E085E0808380E090E0A8EC07
S11307F0B2E48B879C87AD87BE876B857C858D85AE
S11308009E852DEC3CEC4CE255E420D6DC01CB017A
S11308108F839887A987BA876F81788589859A8518
S113082020E030E040E85FE3C3D488232CF481E087
S113083090E09E838D833BC06F81788589859A85FE
S113084020E03FEF4FE757E4FDD518163CF56B85E4
S11308507C858D859E8520E030E040E251E4F6D52C
S1130860DC01CB01BC01CD010FD5DC01CB019E83A2
S11308708D830FC084E191E09C838B838B819C8169
S11308800197F1F79C838B838D819E8101979E83D1
S11308908D838D819E81009769F713C06F81788560
S11308A089859A85F1D4DC01CB019E838D838D816A
S11308B09E819A83898389819A810197F1F79A832A
S11308C089832E960FB6F894DEBF0FBECDBFCF91AD
S11308D0DF910895DF93CF930F92CDB7DEB789836D
S11308E0E0ECF0E08081882F90E0807290700097B7
S11308F0B9F3E6ECF0E0898180830F90CF91DF912A
S11309000895DF93CF93CDB7DEB7E0ECF0E08081BC
S1130910882F90E0807490700097B9F3A1ECB0E058
S1130920E1ECF0E08081877F8C93A0ECB0E0E0EC18
S1130930F0E0808180648C93CF91DF910895DF9300
S1130940CF93CDB7DEB7A1ECB0E0E1ECF0E080816D
S113095088608C93CF91DF910895DF93CF93CDB7C7
S1130960DEB7A1ECB0E0E1ECF0E080818F7E8C9307
S1130970CF91DF910895DF93CF93CDB7DEB7A1EC8C
S1130980B0E0E1ECF0E0808180618C93CF91DF9165
S11309900895DF93CF93CDB7DEB76A970FB6F89477
S11309A0DEBF0FBECDBF9E8B8D8B788F6F8B498F33
S11309B02A8F8D899E89CC01A0E0B0E0BC01CD01D5
S11309C08FD4DC01CB01BC01CD0120E030E046E94D
S11309D053E4F2D3DC01CB01BC01CD0120E030ECC7
S11309E04FE754E433D5DC01CB01BC01CD014CD439
S11309F0DC01CB019E8B8D8B8D899E89892F992754
S1130A008C8B8D898B8B898D882F90E0982F8827EC
S1130A10990F990F9C018F89988D822B932B988F16
S1130A208F8B8F89988D892F99278A8B8F89898BB2
S1130A308A8D882F90E09C01285D3F4F8A89882FFA
S1130A4090E0280F391F8989882F90E0280F391FDB
S1130A508C89882F90E0280F391F8B89882F90E08C
S1130A60820F931F80959095988B8F8776DF8FEFF9
S1130A7031DF8FEF2FDF8A8D2DDF87E02BDF83E0DF
S1130A8029DF8EE127DF8B8925DF8C8923DF8989A4
S1130A9021DF8A891FDF8F851DDF33DF6CDF80E074
S1130AA090E0A8E4B2E48B879C87AD87BE876B8512
S1130AB07C858D859E852DEC3CEC4CE255E4C6D4BA
S1130AC0DC01CB018F839887A987BA876F817885EA
S1130AD089859A8520E030E040E85FE369D3882384
S1130AE02CF481E090E09E838D833BC06F817885F8
S1130AF089859A8520E03FEF4FE757E4A3D4181681
S1130B003CF56B857C858D859E8520E030E040E258
S1130B1051E49CD4DC01CB01BC01CD01B5D3DC0193
S1130B20CB019E838D830FC084E191E09C838B83F2
S1130B308B819C810197F1F79C838B838D819E81AE
S1130B4001979E838D838D819E81009769F713C0E1
S1130B506F81788589859A8597D3DC01CB019E8343
S1130B608D838D819E819A83898389819A8101975E
S1130B70F1F79A838983E3DE6A960FB6F894DEBFB1
S1130B800FBECDBFCF91DF9108950F931F93DF93D5
S1130B90CF93CDB7DEB768970FB6F894DEBF0FBE1C
S1130BA0CDBF00DEC1DC84ED90E022DD6ED280E0BA
S1130BB090E0AAE7B4E48B879C87AD87BE876B85FA
S1130BC07C858D859E852DEC3CEC4CE255E43ED431
S1130BD0DC01CB018F839887A987BA876F817885D9
S1130BE089859A8520E030E040E85FE3E1D28823FC
S1130BF02CF481E090E09E838D833BC06F817885E7
S1130C0089859A8520E03FEF4FE757E41BD41816F7
S1130C103CF56B857C858D859E8520E030E040E247
S1130C2051E414D4DC01CB01BC01CD012DD3DC0192
S1130C30CB019E838D830FC084E191E09C838B83E1
S1130C408B819C810197F1F79C838B838D819E819D
S1130C5001979E838D838D819E81009769F713C0D0
S1130C606F81788589859A850FD3DC01CB019E83BA
S1130C708D838D819E819A83898389819A8101974D
S1130C80F1F79A838983CE010F962ADD0F8518899F
S1130C9029893A894B895C896D897E898F89988DE8
S1130CA0FFDA1F86F0CF0F931F93DF93CF9300D00B
S1130CB000D00F92CDB7DEB79B838A836C8380917B
S1130CC0FE028A3018F08FEF8D8372C08091FE028D
S1130CD0082F10E083E090E01CD49C01C801880F29
S1130CE0991FFC01EC5EFC4F318320838091FE024E
S1130CF0882F90E0880F991FFC01EC5EFC4F8081E7
S1130D009181009719F48FEF8D8352C08091FE0278
S1130D10882F90E0880F991FFC01EC5EFC4F019036
S1130D20F081E02D8A819B81918380838091FE02F2
S1130D30882F90E0880F991FFC01EC5EFC4F019016
S1130D40F081E02D8C8182838A819B81DC01119763
S1130D508A819B81FC0131978081482F8C81282FC7
S1130D6030E081E090E002C0880F991F2A95E2F7F5
S1130D70842B8C93EA81FB818081482F8C81282FDE
S1130D8030E081E090E0022E02C0880F991F0A949F
S1130D90E2F780958423EA81FB8180838091FE02BF
S1130DA089838091FE028F5F8093FE0289818D8307
S1130DB08D810F900F900F900F900F90CF91DF9136
S1130DC01F910F910895DF93CF9300D0CDB7DEB775
S1130DD089839091FE028981891718F08FEF8A83A5
S1130DE029C08981882F90E0880F991FFC01EC5E4F
S1130DF0FC4F0190F081E02DA081B1818C91482FAE
S1130E008981882F90E0880F991FFC01EC5EFC4FCC
S1130E100190F081E02D8281282F30E081E090E084
S1130E20022E02C0880F991F0A94E2F7842B8C9338
S1130E3081E08A838A810F900F90CF91DF9108958A
S1130E40DF93CF9300D0CDB7DEB789839091FE02B4
S1130E508981891718F08FEF8A8329C08981882FA7
S1130E6090E0880F991FFC01EC5EFC4F0190F0812B
S1130E70E02DA081B1818C91482F8981882F90E049
S1130E80880F991FFC01EC5EFC4F0190F081E02D6E
S1130E908281282F30E081E090E0022E02C0880F8A
S1130EA0991F0A94E2F7809584238C931A828A818D
S1130EB00F900F90CF91DF910895DF93CF9300D0DF
S1130EC0CDB7DEB78A8319828A81882F90E0880F94
S1130ED0991FFC01E050FD4F0190F081E02D8081CD
S1130EE09181FC0132978081282F30E08A81882FFC
S1130EF090E0880F991FFC01E050FD4F0190F081B4
S1130F00E02D8281882F90E0A90102C05595479574
S1130F108A95E2F7CA018170898389810F900F90C5
S1130F20CF91DF910895EF92FF920F931F93DF9378
S1130F30CF930F92CDB7DEB78091FF028F5F80937E
S1130F40FF028091FF02833010F01092FF02198299
S1130F501AC08981882F90E0880F991FFC01E05006
S1130F60FD4FE080F1808091FF02082F10E089811D
S1130F70A4DF282FC701800F911FFC013396208323
S1130F8089818F5F89839091FD028981891708F394
S1130F900F90CF91DF911F910F91FF90EF900895E3
S1130FA00F931F93DF93CF9300D0CDB7DEB79A830F
S1130FB08983E0E8F0E01082E1E8F0E089E08083F2
S1130FC008E810E089819A81CC01A0E0B0E0BC017E
S1130FD0CD0186D19B01AC0160E070EC88E29BE41A
S1130FE0EBD0DC01CB01BC01CD0120E030E040E0DE
S1130FF05FE37AD0DC01CB01BC01CD0145D1DC013A
S1131000CB01F80191838083EFE6F0E082E08083F6
S1131010AFE5B0E0EFE5F0E0808180688C930F905D
S11310200F90CF91DF911F910F9108951F920F920E
S11310300FB60F9200905B000F9211242F933F93F1
S11310404F935F936F937F938F939F93AF93BF93CC
S1131050EF93FF93DF93CF93CDB7DEB764DFCF91E8
S1131060DF91FF91EF91BF91AF919F918F917F910C
S11310706F915F914F913F912F910F9000925B0080
S11310800F900FBE0F901F901895DF93CF93CDB79D
S1131090DEB788EE93E084DF81E390E067E003DE6F
S11310A08093280381E390E066E0FDDD80932903CB
S11310B081E390E065E0F7DD80932C038EE290E01D
S11310C063E0F1DD80932A038EE290E064E0EBDDDF
S11310D080932B038EE290E065E0E5DD80932D03A1
S11310E0CF91DF9108955058BB27AA270ED070C125
S11310F061D130F066D120F031F49F3F11F41EF439
S113110056C10EF4E095E7FB4CC1E92F72D180F390
S1131110BA17620773078407950718F071F49EF5F0
S11311208AC10EF4E0950B2EBA2FA02D0B01B90144
S113113090010C01CA01A0011124FF27591B99F049
S1131140593F50F4503E68F11A16F040A22F232F55
S1131150342F4427585FF3CF469537952795A795A5
S1131160F0405395C9F77EF41F16BA0B620B730B4C
S1131170840BBAF09150A1F0FF0FBB1F661F771FBD
S1131180881FC2F70EC0BA0F621F731F841F48F472
S1131190879577956795B795F7959E3F08F0B3CFF8
S11311A09395880F08F09927EE0F979587950895E2
S11311B0D4D008F481E008950CD00AC102D140F0E3
S11311C0F9D030F021F45F3F19F0EBC0511134C174
S11311D0EEC00FD198F39923C9F35523B1F3951BAE
S11311E0550BBB27AA2762177307840738F09F5F44
S11311F05F4F220F331F441FAA1FA9F333D00E2EB3
S11312003AF0E0E830D091505040E695001CCAF71F
S113121029D0FE2F27D0660F771F881FBB1F2617E4
S113122037074807AB07B0E809F0BB0B802DBF01B7
S1131230FF2793585F4F2AF09E3F510568F0B1C0D5
S1131240FBC05F3FECF3983EDCF38695779567959A
S1131250B795F7959F5FC9F7880F911D9695879568
S113126097F90895E1E0660F771F881FBB1F621787
S113127073078407BA0720F0621B730B840BBA0B45
S1131280EE1F88F7E0950895BCD088F09F5790F042
S1131290B92F9927B751A0F0D1F0660F771F881F97
S11312A0991F1AF0BA95C9F712C0B13081F0C3D0B2
S11312B0B1E00895C0C0672F782F8827B85F39F050
S11312C0B93FCCF3869577956795B395D9F73EF4F6
S11312D090958095709561957F4F8F4F9F4F08959E
S11312E0E89409C097FB3EF49095809570956195BC
S11312F07F4F8F4F9F4F9923A9F0F92F96E9BB2772
S11313009395F695879577956795B795F111F8CFED
S1131310FAF4BB0F11F460FF1BC06F5F7F4F8F4F58
S11313209F4F16C0882311F096E911C0772321F04E
S11313309EE8872F762F05C0662371F096E8862FE6
S113134070E060E02AF09A95660F771F881FDAF73D
S1131350880F9695879597F90895990F0008550F6A
S1131360AA0BE0E8FEEF16161706E807F907C0F027
S113137012161306E407F50798F0621B730B840B2F
S1131380950B39F40A2661F0232B242B252B21F409
S113139008950A2609F4A140A6958FEF811D811DA9
S11313A0089597F99F6780E870E060E008959FEFE3
S11313B080EC089500240A941616170618060906E8
S11313C0089500240A9412161306140605060895B7
S11313D0092E0394000C11F4882352F0BB0F40F43F
S11313E0BF2B11F460FF04C06F5F7F4F8F4F9F4F7F
S11313F0089557FD9058440F551F59F05F3F71F001
S11314004795880F97FB991F61F09F3F79F0879567
S11314100895121613061406551FF2CF4695F1DFF0
S113142008C0161617061806991FF1CF8695710580
S1131430610508940895E894BB2766277727CB01B4
S113144097F908958ADF08F48FEF08950BD0C0CF81
S1131450B1DF28F0B6DF18F0952309F0A2CFA7CFAB
S11314601124EACFC6DFA0F3959FD1F3950F50E086
S1131470551F629FF001729FBB27F00DB11D639F42
S1131480AA27F00DB11DAA1F649F6627B00DA11DE8
S1131490661F829F2227B00DA11D621F739FB00D8E
S11314A0A11D621F839FA00D611D221F749F3327FE
S11314B0A00D611D231F849F600D211D822F762F97
S11314C06A2F11249F5750408AF0E1F088234AF094
S11314D0EE0FFF1FBB1F661F771F881F91505040E0
S11314E0A9F79E3F510570F05CCFA6CF5F3FECF3A8
S11314F0983EDCF3869577956795B795F795E795CC
S11315009F5FC1F7FE2B880F911D9695879597F9DC
S11315100895CF93DF93BC018230910510F462E00B
S113152070E0A0913003B0913103ED01E0E0F0E010
S113153040E050E021C0888199818617970769F4BB
S11315408A819B81309719F09383828304C090939E
S1131550310380933003FE0134C06817790738F4EF
S11315604115510519F08417950708F4AC01FE01E3
S11315708A819B819C01E9012097E9F64115510577
S1131580A9F1CA01861B970B049708F4BA01E0E09D
S1131590F0E02AC08D919C91119784179507F9F476
S11315A06417750781F412968D919C911397309767
S11315B019F09383828304C09093310380933003A2
S11315C0FD0132964FC0CA01861B970BFD01E80F3F
S11315D0F91F6193719302978D939C9343C0FD010E
S11315E0828193819C01D9011097A1F680912E03E9
S11315F090912F03892B41F4809102019091030172
S113160090932F0380932E03409104015091050180
S11316104115510541F44DB75EB780910001909199
S11316200101481B590B20912E0330912F032417DD
S11316303507B0F4CA01821B930B8617970780F015
S1131640AB014E5F5F4F8417950750F0420F531F55
S113165050932F0340932E03F9016193719302C0B9
S1131660E0E0F0E0CF01DF91CF910895CF93DF93D5
S1131670009709F450C0EC0122971B821A82A091B2
S11316803003B0913103109709F140E050E0AC17FA
S1131690BD0708F1BB83AA83FE0121913191E20FBA
S11316A0F31FAE17BF0779F48D919C911197280F02
S11316B0391F2E5F3F4F3983288312968D919C9159
S11316C013979B838A834115510571F4D093310399
S11316D0C093300320C012968D919C911397AD0155
S11316E0009711F0DC01D3CFFA01D383C283219197
S11316F03191E20FF31FCE17DF0769F488819981D6
S1131700280F391F2E5F3F4FFA01318320838A81CE
S11317109B8193838283DF91CF910895F894FFCFC7
S10917202000320300006A
S9030000FC
